{
  "_format": "hh-sol-artifact-1",
  "contractName": "PersonalPOB",
  "sourceName": "contracts/PersonalPOB.sol",
  "abi": [
    {
      "inputs": [
        {
          "internalType": "string",
          "name": "_name",
          "type": "string"
        },
        {
          "internalType": "string",
          "name": "_globalTokenURI",
          "type": "string"
        }
      ],
      "stateMutability": "nonpayable",
      "type": "constructor"
    },
    {
      "anonymous": false,
      "inputs": [
        {
          "indexed": true,
          "internalType": "address",
          "name": "owner",
          "type": "address"
        },
        {
          "indexed": true,
          "internalType": "address",
          "name": "approved",
          "type": "address"
        },
        {
          "indexed": true,
          "internalType": "uint256",
          "name": "tokenId",
          "type": "uint256"
        }
      ],
      "name": "Approval",
      "type": "event"
    },
    {
      "anonymous": false,
      "inputs": [
        {
          "indexed": true,
          "internalType": "address",
          "name": "owner",
          "type": "address"
        },
        {
          "indexed": true,
          "internalType": "address",
          "name": "operator",
          "type": "address"
        },
        {
          "indexed": false,
          "internalType": "bool",
          "name": "approved",
          "type": "bool"
        }
      ],
      "name": "ApprovalForAll",
      "type": "event"
    },
    {
      "anonymous": false,
      "inputs": [
        {
          "indexed": true,
          "internalType": "address",
          "name": "previousOwner",
          "type": "address"
        },
        {
          "indexed": true,
          "internalType": "address",
          "name": "newOwner",
          "type": "address"
        }
      ],
      "name": "OwnershipTransferred",
      "type": "event"
    },
    {
      "anonymous": false,
      "inputs": [
        {
          "indexed": true,
          "internalType": "address",
          "name": "from",
          "type": "address"
        },
        {
          "indexed": true,
          "internalType": "address",
          "name": "to",
          "type": "address"
        },
        {
          "indexed": true,
          "internalType": "uint256",
          "name": "tokenId",
          "type": "uint256"
        }
      ],
      "name": "Transfer",
      "type": "event"
    },
    {
      "inputs": [
        {
          "internalType": "address",
          "name": "to",
          "type": "address"
        },
        {
          "internalType": "uint256",
          "name": "tokenId",
          "type": "uint256"
        }
      ],
      "name": "approve",
      "outputs": [],
      "stateMutability": "nonpayable",
      "type": "function"
    },
    {
      "inputs": [
        {
          "internalType": "address",
          "name": "owner",
          "type": "address"
        }
      ],
      "name": "balanceOf",
      "outputs": [
        {
          "internalType": "uint256",
          "name": "",
          "type": "uint256"
        }
      ],
      "stateMutability": "view",
      "type": "function"
    },
    {
      "inputs": [
        {
          "internalType": "uint256",
          "name": "tokenId",
          "type": "uint256"
        }
      ],
      "name": "getApproved",
      "outputs": [
        {
          "internalType": "address",
          "name": "",
          "type": "address"
        }
      ],
      "stateMutability": "view",
      "type": "function"
    },
    {
      "inputs": [],
      "name": "globalTokenURI",
      "outputs": [
        {
          "internalType": "string",
          "name": "",
          "type": "string"
        }
      ],
      "stateMutability": "view",
      "type": "function"
    },
    {
      "inputs": [
        {
          "internalType": "address",
          "name": "owner",
          "type": "address"
        },
        {
          "internalType": "address",
          "name": "operator",
          "type": "address"
        }
      ],
      "name": "isApprovedForAll",
      "outputs": [
        {
          "internalType": "bool",
          "name": "",
          "type": "bool"
        }
      ],
      "stateMutability": "view",
      "type": "function"
    },
    {
      "inputs": [],
      "name": "maxSupply",
      "outputs": [
        {
          "internalType": "uint256",
          "name": "",
          "type": "uint256"
        }
      ],
      "stateMutability": "view",
      "type": "function"
    },
    {
      "inputs": [],
      "name": "name",
      "outputs": [
        {
          "internalType": "string",
          "name": "",
          "type": "string"
        }
      ],
      "stateMutability": "view",
      "type": "function"
    },
    {
      "inputs": [],
      "name": "owner",
      "outputs": [
        {
          "internalType": "address",
          "name": "",
          "type": "address"
        }
      ],
      "stateMutability": "view",
      "type": "function"
    },
    {
      "inputs": [
        {
          "internalType": "uint256",
          "name": "tokenId",
          "type": "uint256"
        }
      ],
      "name": "ownerOf",
      "outputs": [
        {
          "internalType": "address",
          "name": "",
          "type": "address"
        }
      ],
      "stateMutability": "view",
      "type": "function"
    },
    {
      "inputs": [],
      "name": "renounceOwnership",
      "outputs": [],
      "stateMutability": "nonpayable",
      "type": "function"
    },
    {
      "inputs": [
        {
          "internalType": "address",
          "name": "_to",
          "type": "address"
        }
      ],
      "name": "safeMint",
      "outputs": [],
      "stateMutability": "nonpayable",
      "type": "function"
    },
    {
      "inputs": [
        {
          "internalType": "address",
          "name": "from",
          "type": "address"
        },
        {
          "internalType": "address",
          "name": "to",
          "type": "address"
        },
        {
          "internalType": "uint256",
          "name": "tokenId",
          "type": "uint256"
        }
      ],
      "name": "safeTransferFrom",
      "outputs": [],
      "stateMutability": "nonpayable",
      "type": "function"
    },
    {
      "inputs": [
        {
          "internalType": "address",
          "name": "from",
          "type": "address"
        },
        {
          "internalType": "address",
          "name": "to",
          "type": "address"
        },
        {
          "internalType": "uint256",
          "name": "tokenId",
          "type": "uint256"
        },
        {
          "internalType": "bytes",
          "name": "data",
          "type": "bytes"
        }
      ],
      "name": "safeTransferFrom",
      "outputs": [],
      "stateMutability": "nonpayable",
      "type": "function"
    },
    {
      "inputs": [
        {
          "internalType": "address",
          "name": "operator",
          "type": "address"
        },
        {
          "internalType": "bool",
          "name": "approved",
          "type": "bool"
        }
      ],
      "name": "setApprovalForAll",
      "outputs": [],
      "stateMutability": "nonpayable",
      "type": "function"
    },
    {
      "inputs": [
        {
          "internalType": "string",
          "name": "_uri",
          "type": "string"
        }
      ],
      "name": "setGlobalTokenURI",
      "outputs": [],
      "stateMutability": "nonpayable",
      "type": "function"
    },
    {
      "inputs": [
        {
          "internalType": "bytes4",
          "name": "interfaceId",
          "type": "bytes4"
        }
      ],
      "name": "supportsInterface",
      "outputs": [
        {
          "internalType": "bool",
          "name": "",
          "type": "bool"
        }
      ],
      "stateMutability": "view",
      "type": "function"
    },
    {
      "inputs": [],
      "name": "symbol",
      "outputs": [
        {
          "internalType": "string",
          "name": "",
          "type": "string"
        }
      ],
      "stateMutability": "view",
      "type": "function"
    },
    {
      "inputs": [
        {
          "internalType": "uint256",
          "name": "index",
          "type": "uint256"
        }
      ],
      "name": "tokenByIndex",
      "outputs": [
        {
          "internalType": "uint256",
          "name": "",
          "type": "uint256"
        }
      ],
      "stateMutability": "view",
      "type": "function"
    },
    {
      "inputs": [
        {
          "internalType": "address",
          "name": "owner",
          "type": "address"
        },
        {
          "internalType": "uint256",
          "name": "index",
          "type": "uint256"
        }
      ],
      "name": "tokenOfOwnerByIndex",
      "outputs": [
        {
          "internalType": "uint256",
          "name": "",
          "type": "uint256"
        }
      ],
      "stateMutability": "view",
      "type": "function"
    },
    {
      "inputs": [
        {
          "internalType": "uint256",
          "name": "tokenId",
          "type": "uint256"
        }
      ],
      "name": "tokenURI",
      "outputs": [
        {
          "internalType": "string",
          "name": "",
          "type": "string"
        }
      ],
      "stateMutability": "view",
      "type": "function"
    },
    {
      "inputs": [],
      "name": "totalSupply",
      "outputs": [
        {
          "internalType": "uint256",
          "name": "",
          "type": "uint256"
        }
      ],
      "stateMutability": "view",
      "type": "function"
    },
    {
      "inputs": [
        {
          "internalType": "address",
          "name": "from",
          "type": "address"
        },
        {
          "internalType": "address",
          "name": "to",
          "type": "address"
        },
        {
          "internalType": "uint256",
          "name": "tokenId",
          "type": "uint256"
        }
      ],
      "name": "transferFrom",
      "outputs": [],
      "stateMutability": "nonpayable",
      "type": "function"
    },
    {
      "inputs": [
        {
          "internalType": "address",
          "name": "newOwner",
          "type": "address"
        }
      ],
      "name": "transferOwnership",
      "outputs": [],
      "stateMutability": "nonpayable",
      "type": "function"
    }
  ],
  "bytecode": "0x60806040526019600e553480156200001657600080fd5b50604051620044853803806200448583398181016040528101906200003c919062000334565b816040518060400160405280600381526020017f504f420000000000000000000000000000000000000000000000000000000000815250816000908162000084919062000604565b50806001908162000096919062000604565b505050620000b9620000ad620000d360201b60201c565b620000db60201b60201c565b80600d9081620000ca919062000604565b505050620006eb565b600033905090565b6000600b60009054906101000a900473ffffffffffffffffffffffffffffffffffffffff16905081600b60006101000a81548173ffffffffffffffffffffffffffffffffffffffff021916908373ffffffffffffffffffffffffffffffffffffffff1602179055508173ffffffffffffffffffffffffffffffffffffffff168173ffffffffffffffffffffffffffffffffffffffff167f8be0079c531659141344cd1fd0a4f28419497f9722a3daafe3b4186f6b6457e060405160405180910390a35050565b6000604051905090565b600080fd5b600080fd5b600080fd5b600080fd5b6000601f19601f8301169050919050565b7f4e487b7100000000000000000000000000000000000000000000000000000000600052604160045260246000fd5b6200020a82620001bf565b810181811067ffffffffffffffff821117156200022c576200022b620001d0565b5b80604052505050565b600062000241620001a1565b90506200024f8282620001ff565b919050565b600067ffffffffffffffff821115620002725762000271620001d0565b5b6200027d82620001bf565b9050602081019050919050565b60005b83811015620002aa5780820151818401526020810190506200028d565b60008484015250505050565b6000620002cd620002c78462000254565b62000235565b905082815260208101848484011115620002ec57620002eb620001ba565b5b620002f98482856200028a565b509392505050565b600082601f830112620003195762000318620001b5565b5b81516200032b848260208601620002b6565b91505092915050565b600080604083850312156200034e576200034d620001ab565b5b600083015167ffffffffffffffff8111156200036f576200036e620001b0565b5b6200037d8582860162000301565b925050602083015167ffffffffffffffff811115620003a157620003a0620001b0565b5b620003af8582860162000301565b9150509250929050565b600081519050919050565b7f4e487b7100000000000000000000000000000000000000000000000000000000600052602260045260246000fd5b600060028204905060018216806200040c57607f821691505b602082108103620004225762000421620003c4565b5b50919050565b60008190508160005260206000209050919050565b60006020601f8301049050919050565b600082821b905092915050565b6000600883026200048c7fffffffffffffffffffffffffffffffffffffffffffffffffffffffffffffffff826200044d565b6200049886836200044d565b95508019841693508086168417925050509392505050565b6000819050919050565b6000819050919050565b6000620004e5620004df620004d984620004b0565b620004ba565b620004b0565b9050919050565b6000819050919050565b6200050183620004c4565b620005196200051082620004ec565b8484546200045a565b825550505050565b600090565b6200053062000521565b6200053d818484620004f6565b505050565b5b8181101562000565576200055960008262000526565b60018101905062000543565b5050565b601f821115620005b4576200057e8162000428565b62000589846200043d565b8101602085101562000599578190505b620005b1620005a8856200043d565b83018262000542565b50505b505050565b600082821c905092915050565b6000620005d960001984600802620005b9565b1980831691505092915050565b6000620005f48383620005c6565b9150826002028217905092915050565b6200060f82620003b9565b67ffffffffffffffff8111156200062b576200062a620001d0565b5b620006378254620003f3565b6200064482828562000569565b600060209050601f8311600181146200067c576000841562000667578287015190505b620006738582620005e6565b865550620006e3565b601f1984166200068c8662000428565b60005b82811015620006b6578489015182556001820191506020850194506020810190506200068f565b86831015620006d65784890151620006d2601f891682620005c6565b8355505b6001600288020188555050505b505050505050565b613d8a80620006fb6000396000f3fe608060405234801561001057600080fd5b506004361061014d5760003560e01c80636352211e116100c3578063a22cb4651161007c578063a22cb4651461039e578063b88d4fde146103ba578063c87b56dd146103d6578063d5abeb0114610406578063e985e9c514610424578063f2fde38b146104545761014d565b80636352211e146102da57806370a082311461030a57806370d4eeca1461033a578063715018a6146103585780638da5cb5b1461036257806395d89b41146103805761014d565b806318160ddd1161011557806318160ddd1461020857806323b872dd146102265780632f745c591461024257806340d097c31461027257806342842e0e1461028e5780634f6ccce7146102aa5761014d565b806301ab328f1461015257806301ffc9a71461016e57806306fdde031461019e578063081812fc146101bc578063095ea7b3146101ec575b600080fd5b61016c6004803603810190610167919061286b565b610470565b005b6101886004803603810190610183919061290c565b610494565b6040516101959190612954565b60405180910390f35b6101a66104a6565b6040516101b391906129ee565b60405180910390f35b6101d660048036038101906101d19190612a46565b610538565b6040516101e39190612ab4565b60405180910390f35b61020660048036038101906102019190612afb565b61057e565b005b610210610695565b60405161021d9190612b4a565b60405180910390f35b610240600480360381019061023b9190612b65565b6106a2565b005b61025c60048036038101906102579190612afb565b610702565b6040516102699190612b4a565b60405180910390f35b61028c60048036038101906102879190612bb8565b6107a7565b005b6102a860048036038101906102a39190612b65565b61096d565b005b6102c460048036038101906102bf9190612a46565b61098d565b6040516102d19190612b4a565b60405180910390f35b6102f460048036038101906102ef9190612a46565b6109fe565b6040516103019190612ab4565b60405180910390f35b610324600480360381019061031f9190612bb8565b610a84565b6040516103319190612b4a565b60405180910390f35b610342610b3b565b60405161034f91906129ee565b60405180910390f35b610360610bc9565b005b61036a610bdd565b6040516103779190612ab4565b60405180910390f35b610388610c07565b60405161039591906129ee565b60405180910390f35b6103b860048036038101906103b39190612c11565b610c99565b005b6103d460048036038101906103cf9190612cf2565b610caf565b005b6103f060048036038101906103eb9190612a46565b610d11565b6040516103fd91906129ee565b60405180910390f35b61040e610d23565b60405161041b9190612b4a565b60405180910390f35b61043e60048036038101906104399190612d75565b610d29565b60405161044b9190612954565b60405180910390f35b61046e60048036038101906104699190612bb8565b610dbd565b005b610478610e40565b61048181610ebe565b80600d90816104909190612fc1565b5050565b600061049f82610f57565b9050919050565b6060600080546104b590612de4565b80601f01602080910402602001604051908101604052809291908181526020018280546104e190612de4565b801561052e5780601f106105035761010080835404028352916020019161052e565b820191906000526020600020905b81548152906001019060200180831161051157829003601f168201915b5050505050905090565b600061054382610fd1565b6004600083815260200190815260200160002060009054906101000a900473ffffffffffffffffffffffffffffffffffffffff169050919050565b6000610589826109fe565b90508073ffffffffffffffffffffffffffffffffffffffff168373ffffffffffffffffffffffffffffffffffffffff16036105f9576040517f08c379a00000000000000000000000000000000000000000000000000000000081526004016105f090613105565b60405180910390fd5b8073ffffffffffffffffffffffffffffffffffffffff1661061861101c565b73ffffffffffffffffffffffffffffffffffffffff16148061064757506106468161064161101c565b610d29565b5b610686576040517f08c379a000000000000000000000000000000000000000000000000000000000815260040161067d90613197565b60405180910390fd5b6106908383611024565b505050565b6000600880549050905090565b6106b36106ad61101c565b826110dd565b6106f2576040517f08c379a00000000000000000000000000000000000000000000000000000000081526004016106e990613229565b60405180910390fd5b6106fd838383611172565b505050565b600061070d83610a84565b821061074e576040517f08c379a0000000000000000000000000000000000000000000000000000000008152600401610745906132bb565b60405180910390fd5b600660008473ffffffffffffffffffffffffffffffffffffffff1673ffffffffffffffffffffffffffffffffffffffff168152602001908152602001600020600083815260200190815260200160002054905092915050565b60006107b3600c61146b565b90506001600e546107c4919061330a565b8110610805576040517f08c379a00000000000000000000000000000000000000000000000000000000081526004016107fc906133b0565b60405180910390fd5b60003073ffffffffffffffffffffffffffffffffffffffff166370a08231846040518263ffffffff1660e01b81526004016108409190612ab4565b602060405180830381865afa15801561085d573d6000803e3d6000fd5b505050506040513d601f19601f8201168201806040525081019061088191906133e5565b146108c1576040517f08c379a00000000000000000000000000000000000000000000000000000000081526004016108b890613484565b60405180910390fd5b6108cb8282611479565b61095f81600d80546108dc90612de4565b80601f016020809104026020016040519081016040528092919081815260200182805461090890612de4565b80156109555780601f1061092a57610100808354040283529160200191610955565b820191906000526020600020905b81548152906001019060200180831161093857829003601f168201915b5050505050611497565b610969600c611504565b5050565b61098883838360405180602001604052806000815250610caf565b505050565b6000610997610695565b82106109d8576040517f08c379a00000000000000000000000000000000000000000000000000000000081526004016109cf90613516565b60405180910390fd5b600882815481106109ec576109eb613536565b5b90600052602060002001549050919050565b600080610a0a8361151a565b9050600073ffffffffffffffffffffffffffffffffffffffff168173ffffffffffffffffffffffffffffffffffffffff1603610a7b576040517f08c379a0000000000000000000000000000000000000000000000000000000008152600401610a72906135b1565b60405180910390fd5b80915050919050565b60008073ffffffffffffffffffffffffffffffffffffffff168273ffffffffffffffffffffffffffffffffffffffff1603610af4576040517f08c379a0000000000000000000000000000000000000000000000000000000008152600401610aeb90613643565b60405180910390fd5b600360008373ffffffffffffffffffffffffffffffffffffffff1673ffffffffffffffffffffffffffffffffffffffff168152602001908152602001600020549050919050565b600d8054610b4890612de4565b80601f0160208091040260200160405190810160405280929190818152602001828054610b7490612de4565b8015610bc15780601f10610b9657610100808354040283529160200191610bc1565b820191906000526020600020905b815481529060010190602001808311610ba457829003601f168201915b505050505081565b610bd1610e40565b610bdb6000611557565b565b6000600b60009054906101000a900473ffffffffffffffffffffffffffffffffffffffff16905090565b606060018054610c1690612de4565b80601f0160208091040260200160405190810160405280929190818152602001828054610c4290612de4565b8015610c8f5780601f10610c6457610100808354040283529160200191610c8f565b820191906000526020600020905b815481529060010190602001808311610c7257829003601f168201915b5050505050905090565b610cab610ca461101c565b838361161d565b5050565b610cc0610cba61101c565b836110dd565b610cff576040517f08c379a0000000000000000000000000000000000000000000000000000000008152600401610cf690613229565b60405180910390fd5b610d0b84848484611789565b50505050565b6060610d1c826117e5565b9050919050565b600e5481565b6000600560008473ffffffffffffffffffffffffffffffffffffffff1673ffffffffffffffffffffffffffffffffffffffff16815260200190815260200160002060008373ffffffffffffffffffffffffffffffffffffffff1673ffffffffffffffffffffffffffffffffffffffff16815260200190815260200160002060009054906101000a900460ff16905092915050565b610dc5610e40565b600073ffffffffffffffffffffffffffffffffffffffff168173ffffffffffffffffffffffffffffffffffffffff1603610e34576040517f08c379a0000000000000000000000000000000000000000000000000000000008152600401610e2b906136d5565b60405180910390fd5b610e3d81611557565b50565b610e4861101c565b73ffffffffffffffffffffffffffffffffffffffff16610e66610bdd565b73ffffffffffffffffffffffffffffffffffffffff1614610ebc576040517f08c379a0000000000000000000000000000000000000000000000000000000008152600401610eb390613741565b60405180910390fd5b565b610f5481604051602401610ed291906129ee565b6040516020818303038152906040527f41304fac000000000000000000000000000000000000000000000000000000007bffffffffffffffffffffffffffffffffffffffffffffffffffffffff19166020820180517bffffffffffffffffffffffffffffffffffffffffffffffffffffffff83818316178352505050506118f7565b50565b60007f780e9d63000000000000000000000000000000000000000000000000000000007bffffffffffffffffffffffffffffffffffffffffffffffffffffffff1916827bffffffffffffffffffffffffffffffffffffffffffffffffffffffff19161480610fca5750610fc982611920565b5b9050919050565b610fda81611a02565b611019576040517f08c379a0000000000000000000000000000000000000000000000000000000008152600401611010906135b1565b60405180910390fd5b50565b600033905090565b816004600083815260200190815260200160002060006101000a81548173ffffffffffffffffffffffffffffffffffffffff021916908373ffffffffffffffffffffffffffffffffffffffff160217905550808273ffffffffffffffffffffffffffffffffffffffff16611097836109fe565b73ffffffffffffffffffffffffffffffffffffffff167f8c5be1e5ebec7d5bd14f71427d1e84f3dd0314c0f7b2291e5b200ac8c7c3b92560405160405180910390a45050565b6000806110e9836109fe565b90508073ffffffffffffffffffffffffffffffffffffffff168473ffffffffffffffffffffffffffffffffffffffff16148061112b575061112a8185610d29565b5b8061116957508373ffffffffffffffffffffffffffffffffffffffff1661115184610538565b73ffffffffffffffffffffffffffffffffffffffff16145b91505092915050565b8273ffffffffffffffffffffffffffffffffffffffff16611192826109fe565b73ffffffffffffffffffffffffffffffffffffffff16146111e8576040517f08c379a00000000000000000000000000000000000000000000000000000000081526004016111df906137d3565b60405180910390fd5b600073ffffffffffffffffffffffffffffffffffffffff168273ffffffffffffffffffffffffffffffffffffffff1603611257576040517f08c379a000000000000000000000000000000000000000000000000000000000815260040161124e90613865565b60405180910390fd5b6112648383836001611a43565b8273ffffffffffffffffffffffffffffffffffffffff16611284826109fe565b73ffffffffffffffffffffffffffffffffffffffff16146112da576040517f08c379a00000000000000000000000000000000000000000000000000000000081526004016112d1906137d3565b60405180910390fd5b6004600082815260200190815260200160002060006101000a81549073ffffffffffffffffffffffffffffffffffffffff02191690556001600360008573ffffffffffffffffffffffffffffffffffffffff1673ffffffffffffffffffffffffffffffffffffffff168152602001908152602001600020600082825403925050819055506001600360008473ffffffffffffffffffffffffffffffffffffffff1673ffffffffffffffffffffffffffffffffffffffff16815260200190815260200160002060008282540192505081905550816002600083815260200190815260200160002060006101000a81548173ffffffffffffffffffffffffffffffffffffffff021916908373ffffffffffffffffffffffffffffffffffffffff160217905550808273ffffffffffffffffffffffffffffffffffffffff168473ffffffffffffffffffffffffffffffffffffffff167fddf252ad1be2c89b69c2b068fc378daa952ba7f163c4a11628f55a4df523b3ef60405160405180910390a46114668383836001611a55565b505050565b600081600001549050919050565b611493828260405180602001604052806000815250611a5b565b5050565b6114a082611a02565b6114df576040517f08c379a00000000000000000000000000000000000000000000000000000000081526004016114d6906138f7565b60405180910390fd5b80600a600084815260200190815260200160002090816114ff9190612fc1565b505050565b6001816000016000828254019250508190555050565b60006002600083815260200190815260200160002060009054906101000a900473ffffffffffffffffffffffffffffffffffffffff169050919050565b6000600b60009054906101000a900473ffffffffffffffffffffffffffffffffffffffff16905081600b60006101000a81548173ffffffffffffffffffffffffffffffffffffffff021916908373ffffffffffffffffffffffffffffffffffffffff1602179055508173ffffffffffffffffffffffffffffffffffffffff168173ffffffffffffffffffffffffffffffffffffffff167f8be0079c531659141344cd1fd0a4f28419497f9722a3daafe3b4186f6b6457e060405160405180910390a35050565b8173ffffffffffffffffffffffffffffffffffffffff168373ffffffffffffffffffffffffffffffffffffffff160361168b576040517f08c379a000000000000000000000000000000000000000000000000000000000815260040161168290613963565b60405180910390fd5b80600560008573ffffffffffffffffffffffffffffffffffffffff1673ffffffffffffffffffffffffffffffffffffffff16815260200190815260200160002060008473ffffffffffffffffffffffffffffffffffffffff1673ffffffffffffffffffffffffffffffffffffffff16815260200190815260200160002060006101000a81548160ff0219169083151502179055508173ffffffffffffffffffffffffffffffffffffffff168373ffffffffffffffffffffffffffffffffffffffff167f17307eab39ab6107e8899845ad3d59bd9653f200f220920489ca2b5937696c318360405161177c9190612954565b60405180910390a3505050565b611794848484611172565b6117a084848484611ab6565b6117df576040517f08c379a00000000000000000000000000000000000000000000000000000000081526004016117d6906139f5565b60405180910390fd5b50505050565b60606117f082610fd1565b6000600a6000848152602001908152602001600020805461181090612de4565b80601f016020809104026020016040519081016040528092919081815260200182805461183c90612de4565b80156118895780601f1061185e57610100808354040283529160200191611889565b820191906000526020600020905b81548152906001019060200180831161186c57829003601f168201915b50505050509050600061189a611c3d565b905060008151036118af5781925050506118f2565b6000825111156118e45780826040516020016118cc929190613a51565b604051602081830303815290604052925050506118f2565b6118ed84611c54565b925050505b919050565b60008151905060006a636f6e736f6c652e6c6f679050602083016000808483855afa5050505050565b60007f80ac58cd000000000000000000000000000000000000000000000000000000007bffffffffffffffffffffffffffffffffffffffffffffffffffffffff1916827bffffffffffffffffffffffffffffffffffffffffffffffffffffffff191614806119eb57507f5b5e139f000000000000000000000000000000000000000000000000000000007bffffffffffffffffffffffffffffffffffffffffffffffffffffffff1916827bffffffffffffffffffffffffffffffffffffffffffffffffffffffff1916145b806119fb57506119fa82611cbc565b5b9050919050565b60008073ffffffffffffffffffffffffffffffffffffffff16611a248361151a565b73ffffffffffffffffffffffffffffffffffffffff1614159050919050565b611a4f84848484611d26565b50505050565b50505050565b611a658383611e84565b611a726000848484611ab6565b611ab1576040517f08c379a0000000000000000000000000000000000000000000000000000000008152600401611aa8906139f5565b60405180910390fd5b505050565b6000611ad78473ffffffffffffffffffffffffffffffffffffffff166120a1565b15611c30578373ffffffffffffffffffffffffffffffffffffffff1663150b7a02611b0061101c565b8786866040518563ffffffff1660e01b8152600401611b229493929190613aca565b6020604051808303816000875af1925050508015611b5e57506040513d601f19601f82011682018060405250810190611b5b9190613b2b565b60015b611be0573d8060008114611b8e576040519150601f19603f3d011682016040523d82523d6000602084013e611b93565b606091505b506000815103611bd8576040517f08c379a0000000000000000000000000000000000000000000000000000000008152600401611bcf906139f5565b60405180910390fd5b805181602001fd5b63150b7a0260e01b7bffffffffffffffffffffffffffffffffffffffffffffffffffffffff1916817bffffffffffffffffffffffffffffffffffffffffffffffffffffffff191614915050611c35565b600190505b949350505050565b606060405180602001604052806000815250905090565b6060611c5f82610fd1565b6000611c69611c3d565b90506000815111611c895760405180602001604052806000815250611cb4565b80611c93846120c4565b604051602001611ca4929190613a51565b6040516020818303038152906040525b915050919050565b60007f01ffc9a7000000000000000000000000000000000000000000000000000000007bffffffffffffffffffffffffffffffffffffffffffffffffffffffff1916827bffffffffffffffffffffffffffffffffffffffffffffffffffffffff1916149050919050565b611d3284848484612192565b6001811115611d76576040517f08c379a0000000000000000000000000000000000000000000000000000000008152600401611d6d90613bca565b60405180910390fd5b6000829050600073ffffffffffffffffffffffffffffffffffffffff168573ffffffffffffffffffffffffffffffffffffffff1603611dbd57611db8816122b8565b611dfc565b8373ffffffffffffffffffffffffffffffffffffffff168573ffffffffffffffffffffffffffffffffffffffff1614611dfb57611dfa8582612301565b5b5b600073ffffffffffffffffffffffffffffffffffffffff168473ffffffffffffffffffffffffffffffffffffffff1603611e3e57611e398161246e565b611e7d565b8473ffffffffffffffffffffffffffffffffffffffff168473ffffffffffffffffffffffffffffffffffffffff1614611e7c57611e7b848261253f565b5b5b5050505050565b600073ffffffffffffffffffffffffffffffffffffffff168273ffffffffffffffffffffffffffffffffffffffff1603611ef3576040517f08c379a0000000000000000000000000000000000000000000000000000000008152600401611eea90613c36565b60405180910390fd5b611efc81611a02565b15611f3c576040517f08c379a0000000000000000000000000000000000000000000000000000000008152600401611f3390613ca2565b60405180910390fd5b611f4a600083836001611a43565b611f5381611a02565b15611f93576040517f08c379a0000000000000000000000000000000000000000000000000000000008152600401611f8a90613ca2565b60405180910390fd5b6001600360008473ffffffffffffffffffffffffffffffffffffffff1673ffffffffffffffffffffffffffffffffffffffff16815260200190815260200160002060008282540192505081905550816002600083815260200190815260200160002060006101000a81548173ffffffffffffffffffffffffffffffffffffffff021916908373ffffffffffffffffffffffffffffffffffffffff160217905550808273ffffffffffffffffffffffffffffffffffffffff16600073ffffffffffffffffffffffffffffffffffffffff167fddf252ad1be2c89b69c2b068fc378daa952ba7f163c4a11628f55a4df523b3ef60405160405180910390a461209d600083836001611a55565b5050565b6000808273ffffffffffffffffffffffffffffffffffffffff163b119050919050565b6060600060016120d3846125be565b01905060008167ffffffffffffffff8111156120f2576120f1612740565b5b6040519080825280601f01601f1916602001820160405280156121245781602001600182028036833780820191505090505b509050600082602001820190505b600115612187578080600190039150507f3031323334353637383961626364656600000000000000000000000000000000600a86061a8153600a858161217b5761217a613cc2565b5b04945060008503612132575b819350505050919050565b60018111156122b257600073ffffffffffffffffffffffffffffffffffffffff168473ffffffffffffffffffffffffffffffffffffffff16146122265780600360008673ffffffffffffffffffffffffffffffffffffffff1673ffffffffffffffffffffffffffffffffffffffff168152602001908152602001600020600082825461221e919061330a565b925050819055505b600073ffffffffffffffffffffffffffffffffffffffff168373ffffffffffffffffffffffffffffffffffffffff16146122b15780600360008573ffffffffffffffffffffffffffffffffffffffff1673ffffffffffffffffffffffffffffffffffffffff16815260200190815260200160002060008282546122a99190613cf1565b925050819055505b5b50505050565b6008805490506009600083815260200190815260200160002081905550600881908060018154018082558091505060019003906000526020600020016000909190919091505550565b6000600161230e84610a84565b612318919061330a565b90506000600760008481526020019081526020016000205490508181146123fd576000600660008673ffffffffffffffffffffffffffffffffffffffff1673ffffffffffffffffffffffffffffffffffffffff168152602001908152602001600020600084815260200190815260200160002054905080600660008773ffffffffffffffffffffffffffffffffffffffff1673ffffffffffffffffffffffffffffffffffffffff168152602001908152602001600020600084815260200190815260200160002081905550816007600083815260200190815260200160002081905550505b6007600084815260200190815260200160002060009055600660008573ffffffffffffffffffffffffffffffffffffffff1673ffffffffffffffffffffffffffffffffffffffff16815260200190815260200160002060008381526020019081526020016000206000905550505050565b60006001600880549050612482919061330a565b90506000600960008481526020019081526020016000205490506000600883815481106124b2576124b1613536565b5b9060005260206000200154905080600883815481106124d4576124d3613536565b5b90600052602060002001819055508160096000838152602001908152602001600020819055506009600085815260200190815260200160002060009055600880548061252357612522613d25565b5b6001900381819060005260206000200160009055905550505050565b600061254a83610a84565b905081600660008573ffffffffffffffffffffffffffffffffffffffff1673ffffffffffffffffffffffffffffffffffffffff168152602001908152602001600020600083815260200190815260200160002081905550806007600084815260200190815260200160002081905550505050565b600080600090507a184f03e93ff9f4daa797ed6e38ed64bf6a1f010000000000000000831061261c577a184f03e93ff9f4daa797ed6e38ed64bf6a1f010000000000000000838161261257612611613cc2565b5b0492506040810190505b6d04ee2d6d415b85acef81000000008310612659576d04ee2d6d415b85acef8100000000838161264f5761264e613cc2565b5b0492506020810190505b662386f26fc10000831061268857662386f26fc10000838161267e5761267d613cc2565b5b0492506010810190505b6305f5e10083106126b1576305f5e10083816126a7576126a6613cc2565b5b0492506008810190505b61271083106126d65761271083816126cc576126cb613cc2565b5b0492506004810190505b606483106126f957606483816126ef576126ee613cc2565b5b0492506002810190505b600a8310612708576001810190505b80915050919050565b6000604051905090565b600080fd5b600080fd5b600080fd5b600080fd5b6000601f19601f8301169050919050565b7f4e487b7100000000000000000000000000000000000000000000000000000000600052604160045260246000fd5b6127788261272f565b810181811067ffffffffffffffff8211171561279757612796612740565b5b80604052505050565b60006127aa612711565b90506127b6828261276f565b919050565b600067ffffffffffffffff8211156127d6576127d5612740565b5b6127df8261272f565b9050602081019050919050565b82818337600083830152505050565b600061280e612809846127bb565b6127a0565b90508281526020810184848401111561282a5761282961272a565b5b6128358482856127ec565b509392505050565b600082601f83011261285257612851612725565b5b81356128628482602086016127fb565b91505092915050565b6000602082840312156128815761288061271b565b5b600082013567ffffffffffffffff81111561289f5761289e612720565b5b6128ab8482850161283d565b91505092915050565b60007fffffffff0000000000000000000000000000000000000000000000000000000082169050919050565b6128e9816128b4565b81146128f457600080fd5b50565b600081359050612906816128e0565b92915050565b6000602082840312156129225761292161271b565b5b6000612930848285016128f7565b91505092915050565b60008115159050919050565b61294e81612939565b82525050565b60006020820190506129696000830184612945565b92915050565b600081519050919050565b600082825260208201905092915050565b60005b838110156129a957808201518184015260208101905061298e565b60008484015250505050565b60006129c08261296f565b6129ca818561297a565b93506129da81856020860161298b565b6129e38161272f565b840191505092915050565b60006020820190508181036000830152612a0881846129b5565b905092915050565b6000819050919050565b612a2381612a10565b8114612a2e57600080fd5b50565b600081359050612a4081612a1a565b92915050565b600060208284031215612a5c57612a5b61271b565b5b6000612a6a84828501612a31565b91505092915050565b600073ffffffffffffffffffffffffffffffffffffffff82169050919050565b6000612a9e82612a73565b9050919050565b612aae81612a93565b82525050565b6000602082019050612ac96000830184612aa5565b92915050565b612ad881612a93565b8114612ae357600080fd5b50565b600081359050612af581612acf565b92915050565b60008060408385031215612b1257612b1161271b565b5b6000612b2085828601612ae6565b9250506020612b3185828601612a31565b9150509250929050565b612b4481612a10565b82525050565b6000602082019050612b5f6000830184612b3b565b92915050565b600080600060608486031215612b7e57612b7d61271b565b5b6000612b8c86828701612ae6565b9350506020612b9d86828701612ae6565b9250506040612bae86828701612a31565b9150509250925092565b600060208284031215612bce57612bcd61271b565b5b6000612bdc84828501612ae6565b91505092915050565b612bee81612939565b8114612bf957600080fd5b50565b600081359050612c0b81612be5565b92915050565b60008060408385031215612c2857612c2761271b565b5b6000612c3685828601612ae6565b9250506020612c4785828601612bfc565b9150509250929050565b600067ffffffffffffffff821115612c6c57612c6b612740565b5b612c758261272f565b9050602081019050919050565b6000612c95612c9084612c51565b6127a0565b905082815260208101848484011115612cb157612cb061272a565b5b612cbc8482856127ec565b509392505050565b600082601f830112612cd957612cd8612725565b5b8135612ce9848260208601612c82565b91505092915050565b60008060008060808587031215612d0c57612d0b61271b565b5b6000612d1a87828801612ae6565b9450506020612d2b87828801612ae6565b9350506040612d3c87828801612a31565b925050606085013567ffffffffffffffff811115612d5d57612d5c612720565b5b612d6987828801612cc4565b91505092959194509250565b60008060408385031215612d8c57612d8b61271b565b5b6000612d9a85828601612ae6565b9250506020612dab85828601612ae6565b9150509250929050565b7f4e487b7100000000000000000000000000000000000000000000000000000000600052602260045260246000fd5b60006002820490506001821680612dfc57607f821691505b602082108103612e0f57612e0e612db5565b5b50919050565b60008190508160005260206000209050919050565b60006020601f8301049050919050565b600082821b905092915050565b600060088302612e777fffffffffffffffffffffffffffffffffffffffffffffffffffffffffffffffff82612e3a565b612e818683612e3a565b95508019841693508086168417925050509392505050565b6000819050919050565b6000612ebe612eb9612eb484612a10565b612e99565b612a10565b9050919050565b6000819050919050565b612ed883612ea3565b612eec612ee482612ec5565b848454612e47565b825550505050565b600090565b612f01612ef4565b612f0c818484612ecf565b505050565b5b81811015612f3057612f25600082612ef9565b600181019050612f12565b5050565b601f821115612f7557612f4681612e15565b612f4f84612e2a565b81016020851015612f5e578190505b612f72612f6a85612e2a565b830182612f11565b50505b505050565b600082821c905092915050565b6000612f9860001984600802612f7a565b1980831691505092915050565b6000612fb18383612f87565b9150826002028217905092915050565b612fca8261296f565b67ffffffffffffffff811115612fe357612fe2612740565b5b612fed8254612de4565b612ff8828285612f34565b600060209050601f83116001811461302b5760008415613019578287015190505b6130238582612fa5565b86555061308b565b601f19841661303986612e15565b60005b828110156130615784890151825560018201915060208501945060208101905061303c565b8683101561307e578489015161307a601f891682612f87565b8355505b6001600288020188555050505b505050505050565b7f4552433732313a20617070726f76616c20746f2063757272656e74206f776e6560008201527f7200000000000000000000000000000000000000000000000000000000000000602082015250565b60006130ef60218361297a565b91506130fa82613093565b604082019050919050565b6000602082019050818103600083015261311e816130e2565b9050919050565b7f4552433732313a20617070726f76652063616c6c6572206973206e6f7420746f60008201527f6b656e206f776e6572206f7220617070726f76656420666f7220616c6c000000602082015250565b6000613181603d8361297a565b915061318c82613125565b604082019050919050565b600060208201905081810360008301526131b081613174565b9050919050565b7f4552433732313a2063616c6c6572206973206e6f7420746f6b656e206f776e6560008201527f72206f7220617070726f76656400000000000000000000000000000000000000602082015250565b6000613213602d8361297a565b915061321e826131b7565b604082019050919050565b6000602082019050818103600083015261324281613206565b9050919050565b7f455243373231456e756d657261626c653a206f776e657220696e646578206f7560008201527f74206f6620626f756e6473000000000000000000000000000000000000000000602082015250565b60006132a5602b8361297a565b91506132b082613249565b604082019050919050565b600060208201905081810360008301526132d481613298565b9050919050565b7f4e487b7100000000000000000000000000000000000000000000000000000000600052601160045260246000fd5b600061331582612a10565b915061332083612a10565b9250828203905081811115613338576133376132db565b5b92915050565b7f506572736f6e616c504f423a204d6178696d756d20737570706c79207265616360008201527f6865640000000000000000000000000000000000000000000000000000000000602082015250565b600061339a60238361297a565b91506133a58261333e565b604082019050919050565b600060208201905081810360008301526133c98161338d565b9050919050565b6000815190506133df81612a1a565b92915050565b6000602082840312156133fb576133fa61271b565b5b6000613409848285016133d0565b91505092915050565b7f506572736f6e616c504f423a204f6e6c79206f6e6520504f422070657220616460008201527f6472657373000000000000000000000000000000000000000000000000000000602082015250565b600061346e60258361297a565b915061347982613412565b604082019050919050565b6000602082019050818103600083015261349d81613461565b9050919050565b7f455243373231456e756d657261626c653a20676c6f62616c20696e646578206f60008201527f7574206f6620626f756e64730000000000000000000000000000000000000000602082015250565b6000613500602c8361297a565b915061350b826134a4565b604082019050919050565b6000602082019050818103600083015261352f816134f3565b9050919050565b7f4e487b7100000000000000000000000000000000000000000000000000000000600052603260045260246000fd5b7f4552433732313a20696e76616c696420746f6b656e2049440000000000000000600082015250565b600061359b60188361297a565b91506135a682613565565b602082019050919050565b600060208201905081810360008301526135ca8161358e565b9050919050565b7f4552433732313a2061646472657373207a65726f206973206e6f74206120766160008201527f6c6964206f776e65720000000000000000000000000000000000000000000000602082015250565b600061362d60298361297a565b9150613638826135d1565b604082019050919050565b6000602082019050818103600083015261365c81613620565b9050919050565b7f4f776e61626c653a206e6577206f776e657220697320746865207a65726f206160008201527f6464726573730000000000000000000000000000000000000000000000000000602082015250565b60006136bf60268361297a565b91506136ca82613663565b604082019050919050565b600060208201905081810360008301526136ee816136b2565b9050919050565b7f4f776e61626c653a2063616c6c6572206973206e6f7420746865206f776e6572600082015250565b600061372b60208361297a565b9150613736826136f5565b602082019050919050565b6000602082019050818103600083015261375a8161371e565b9050919050565b7f4552433732313a207472616e736665722066726f6d20696e636f72726563742060008201527f6f776e6572000000000000000000000000000000000000000000000000000000602082015250565b60006137bd60258361297a565b91506137c882613761565b604082019050919050565b600060208201905081810360008301526137ec816137b0565b9050919050565b7f4552433732313a207472616e7366657220746f20746865207a65726f2061646460008201527f7265737300000000000000000000000000000000000000000000000000000000602082015250565b600061384f60248361297a565b915061385a826137f3565b604082019050919050565b6000602082019050818103600083015261387e81613842565b9050919050565b7f45524337323155524953746f726167653a2055524920736574206f66206e6f6e60008201527f6578697374656e7420746f6b656e000000000000000000000000000000000000602082015250565b60006138e1602e8361297a565b91506138ec82613885565b604082019050919050565b60006020820190508181036000830152613910816138d4565b9050919050565b7f4552433732313a20617070726f766520746f2063616c6c657200000000000000600082015250565b600061394d60198361297a565b915061395882613917565b602082019050919050565b6000602082019050818103600083015261397c81613940565b9050919050565b7f4552433732313a207472616e7366657220746f206e6f6e20455243373231526560008201527f63656976657220696d706c656d656e7465720000000000000000000000000000602082015250565b60006139df60328361297a565b91506139ea82613983565b604082019050919050565b60006020820190508181036000830152613a0e816139d2565b9050919050565b600081905092915050565b6000613a2b8261296f565b613a358185613a15565b9350613a4581856020860161298b565b80840191505092915050565b6000613a5d8285613a20565b9150613a698284613a20565b91508190509392505050565b600081519050919050565b600082825260208201905092915050565b6000613a9c82613a75565b613aa68185613a80565b9350613ab681856020860161298b565b613abf8161272f565b840191505092915050565b6000608082019050613adf6000830187612aa5565b613aec6020830186612aa5565b613af96040830185612b3b565b8181036060830152613b0b8184613a91565b905095945050505050565b600081519050613b25816128e0565b92915050565b600060208284031215613b4157613b4061271b565b5b6000613b4f84828501613b16565b91505092915050565b7f455243373231456e756d657261626c653a20636f6e736563757469766520747260008201527f616e7366657273206e6f7420737570706f727465640000000000000000000000602082015250565b6000613bb460358361297a565b9150613bbf82613b58565b604082019050919050565b60006020820190508181036000830152613be381613ba7565b9050919050565b7f4552433732313a206d696e7420746f20746865207a65726f2061646472657373600082015250565b6000613c2060208361297a565b9150613c2b82613bea565b602082019050919050565b60006020820190508181036000830152613c4f81613c13565b9050919050565b7f4552433732313a20746f6b656e20616c7265616479206d696e74656400000000600082015250565b6000613c8c601c8361297a565b9150613c9782613c56565b602082019050919050565b60006020820190508181036000830152613cbb81613c7f565b9050919050565b7f4e487b7100000000000000000000000000000000000000000000000000000000600052601260045260246000fd5b6000613cfc82612a10565b9150613d0783612a10565b9250828201905080821115613d1f57613d1e6132db565b5b92915050565b7f4e487b7100000000000000000000000000000000000000000000000000000000600052603160045260246000fdfea264697066735822122009e5ccaf1aacca7fa402dd17f3d8c25decd60c6dd81b62e74503dc54c2a6e83264736f6c63430008110033",
  "linkReferences": {},
  "deployedLinkReferences": {}
}