{
  "_format": "hh-sol-artifact-1",
  "contractName": "POEPProfile",
  "sourceName": "contracts/POEPProfile.sol",
  "abi": [
    {
      "inputs": [
        {
          "internalType": "string",
          "name": "_name",
          "type": "string"
        },
        {
          "internalType": "string",
          "name": "_symbol",
          "type": "string"
        }
      ],
      "stateMutability": "nonpayable",
      "type": "constructor"
    },
    {
      "anonymous": false,
      "inputs": [
        {
          "indexed": true,
          "internalType": "address",
          "name": "owner",
          "type": "address"
        },
        {
          "indexed": true,
          "internalType": "address",
          "name": "approved",
          "type": "address"
        },
        {
          "indexed": true,
          "internalType": "uint256",
          "name": "tokenId",
          "type": "uint256"
        }
      ],
      "name": "Approval",
      "type": "event"
    },
    {
      "anonymous": false,
      "inputs": [
        {
          "indexed": true,
          "internalType": "address",
          "name": "owner",
          "type": "address"
        },
        {
          "indexed": true,
          "internalType": "address",
          "name": "operator",
          "type": "address"
        },
        {
          "indexed": false,
          "internalType": "bool",
          "name": "approved",
          "type": "bool"
        }
      ],
      "name": "ApprovalForAll",
      "type": "event"
    },
    {
      "anonymous": false,
      "inputs": [
        {
          "indexed": true,
          "internalType": "address",
          "name": "previousOwner",
          "type": "address"
        },
        {
          "indexed": true,
          "internalType": "address",
          "name": "newOwner",
          "type": "address"
        }
      ],
      "name": "OwnershipTransferred",
      "type": "event"
    },
    {
      "anonymous": false,
      "inputs": [
        {
          "indexed": true,
          "internalType": "address",
          "name": "from",
          "type": "address"
        },
        {
          "indexed": true,
          "internalType": "address",
          "name": "to",
          "type": "address"
        },
        {
          "indexed": true,
          "internalType": "uint256",
          "name": "tokenId",
          "type": "uint256"
        }
      ],
      "name": "Transfer",
      "type": "event"
    },
    {
      "inputs": [
        {
          "internalType": "address",
          "name": "to",
          "type": "address"
        },
        {
          "internalType": "uint256",
          "name": "tokenId",
          "type": "uint256"
        }
      ],
      "name": "approve",
      "outputs": [],
      "stateMutability": "nonpayable",
      "type": "function"
    },
    {
      "inputs": [
        {
          "internalType": "address",
          "name": "owner",
          "type": "address"
        }
      ],
      "name": "balanceOf",
      "outputs": [
        {
          "internalType": "uint256",
          "name": "",
          "type": "uint256"
        }
      ],
      "stateMutability": "view",
      "type": "function"
    },
    {
      "inputs": [
        {
          "internalType": "uint256",
          "name": "tokenId",
          "type": "uint256"
        }
      ],
      "name": "getApproved",
      "outputs": [
        {
          "internalType": "address",
          "name": "",
          "type": "address"
        }
      ],
      "stateMutability": "view",
      "type": "function"
    },
    {
      "inputs": [],
      "name": "globalTokenURI",
      "outputs": [
        {
          "internalType": "string",
          "name": "",
          "type": "string"
        }
      ],
      "stateMutability": "view",
      "type": "function"
    },
    {
      "inputs": [
        {
          "internalType": "address",
          "name": "owner",
          "type": "address"
        },
        {
          "internalType": "address",
          "name": "operator",
          "type": "address"
        }
      ],
      "name": "isApprovedForAll",
      "outputs": [
        {
          "internalType": "bool",
          "name": "",
          "type": "bool"
        }
      ],
      "stateMutability": "view",
      "type": "function"
    },
    {
      "inputs": [],
      "name": "name",
      "outputs": [
        {
          "internalType": "string",
          "name": "",
          "type": "string"
        }
      ],
      "stateMutability": "view",
      "type": "function"
    },
    {
      "inputs": [],
      "name": "owner",
      "outputs": [
        {
          "internalType": "address",
          "name": "",
          "type": "address"
        }
      ],
      "stateMutability": "view",
      "type": "function"
    },
    {
      "inputs": [
        {
          "internalType": "uint256",
          "name": "tokenId",
          "type": "uint256"
        }
      ],
      "name": "ownerOf",
      "outputs": [
        {
          "internalType": "address",
          "name": "",
          "type": "address"
        }
      ],
      "stateMutability": "view",
      "type": "function"
    },
    {
      "inputs": [],
      "name": "renounceOwnership",
      "outputs": [],
      "stateMutability": "nonpayable",
      "type": "function"
    },
    {
      "inputs": [
        {
          "internalType": "address",
          "name": "to",
          "type": "address"
        }
      ],
      "name": "safeMint",
      "outputs": [],
      "stateMutability": "nonpayable",
      "type": "function"
    },
    {
      "inputs": [
        {
          "internalType": "address",
          "name": "from",
          "type": "address"
        },
        {
          "internalType": "address",
          "name": "to",
          "type": "address"
        },
        {
          "internalType": "uint256",
          "name": "tokenId",
          "type": "uint256"
        }
      ],
      "name": "safeTransferFrom",
      "outputs": [],
      "stateMutability": "nonpayable",
      "type": "function"
    },
    {
      "inputs": [
        {
          "internalType": "address",
          "name": "from",
          "type": "address"
        },
        {
          "internalType": "address",
          "name": "to",
          "type": "address"
        },
        {
          "internalType": "uint256",
          "name": "tokenId",
          "type": "uint256"
        },
        {
          "internalType": "bytes",
          "name": "data",
          "type": "bytes"
        }
      ],
      "name": "safeTransferFrom",
      "outputs": [],
      "stateMutability": "nonpayable",
      "type": "function"
    },
    {
      "inputs": [
        {
          "internalType": "address",
          "name": "operator",
          "type": "address"
        },
        {
          "internalType": "bool",
          "name": "approved",
          "type": "bool"
        }
      ],
      "name": "setApprovalForAll",
      "outputs": [],
      "stateMutability": "nonpayable",
      "type": "function"
    },
    {
      "inputs": [
        {
          "internalType": "string",
          "name": "_uri",
          "type": "string"
        }
      ],
      "name": "setGlobalTokenURI",
      "outputs": [],
      "stateMutability": "nonpayable",
      "type": "function"
    },
    {
      "inputs": [
        {
          "internalType": "bytes4",
          "name": "interfaceId",
          "type": "bytes4"
        }
      ],
      "name": "supportsInterface",
      "outputs": [
        {
          "internalType": "bool",
          "name": "",
          "type": "bool"
        }
      ],
      "stateMutability": "view",
      "type": "function"
    },
    {
      "inputs": [],
      "name": "symbol",
      "outputs": [
        {
          "internalType": "string",
          "name": "",
          "type": "string"
        }
      ],
      "stateMutability": "view",
      "type": "function"
    },
    {
      "inputs": [
        {
          "internalType": "uint256",
          "name": "index",
          "type": "uint256"
        }
      ],
      "name": "tokenByIndex",
      "outputs": [
        {
          "internalType": "uint256",
          "name": "",
          "type": "uint256"
        }
      ],
      "stateMutability": "view",
      "type": "function"
    },
    {
      "inputs": [
        {
          "internalType": "address",
          "name": "owner",
          "type": "address"
        },
        {
          "internalType": "uint256",
          "name": "index",
          "type": "uint256"
        }
      ],
      "name": "tokenOfOwnerByIndex",
      "outputs": [
        {
          "internalType": "uint256",
          "name": "",
          "type": "uint256"
        }
      ],
      "stateMutability": "view",
      "type": "function"
    },
    {
      "inputs": [
        {
          "internalType": "uint256",
          "name": "tokenId",
          "type": "uint256"
        }
      ],
      "name": "tokenURI",
      "outputs": [
        {
          "internalType": "string",
          "name": "",
          "type": "string"
        }
      ],
      "stateMutability": "view",
      "type": "function"
    },
    {
      "inputs": [],
      "name": "totalSupply",
      "outputs": [
        {
          "internalType": "uint256",
          "name": "",
          "type": "uint256"
        }
      ],
      "stateMutability": "view",
      "type": "function"
    },
    {
      "inputs": [
        {
          "internalType": "address",
          "name": "from",
          "type": "address"
        },
        {
          "internalType": "address",
          "name": "to",
          "type": "address"
        },
        {
          "internalType": "uint256",
          "name": "tokenId",
          "type": "uint256"
        }
      ],
      "name": "transferFrom",
      "outputs": [],
      "stateMutability": "nonpayable",
      "type": "function"
    },
    {
      "inputs": [
        {
          "internalType": "address",
          "name": "newOwner",
          "type": "address"
        }
      ],
      "name": "transferOwnership",
      "outputs": [],
      "stateMutability": "nonpayable",
      "type": "function"
    }
  ],
  "bytecode": "0x60806040523480156200001157600080fd5b50604051620040cd380380620040cd8339818101604052810190620000379190620002e8565b818181600090816200004a9190620005b8565b5080600190816200005c9190620005b8565b5050506200007f620000736200008760201b60201c565b6200008f60201b60201c565b50506200069f565b600033905090565b6000600b60009054906101000a900473ffffffffffffffffffffffffffffffffffffffff16905081600b60006101000a81548173ffffffffffffffffffffffffffffffffffffffff021916908373ffffffffffffffffffffffffffffffffffffffff1602179055508173ffffffffffffffffffffffffffffffffffffffff168173ffffffffffffffffffffffffffffffffffffffff167f8be0079c531659141344cd1fd0a4f28419497f9722a3daafe3b4186f6b6457e060405160405180910390a35050565b6000604051905090565b600080fd5b600080fd5b600080fd5b600080fd5b6000601f19601f8301169050919050565b7f4e487b7100000000000000000000000000000000000000000000000000000000600052604160045260246000fd5b620001be8262000173565b810181811067ffffffffffffffff82111715620001e057620001df62000184565b5b80604052505050565b6000620001f562000155565b9050620002038282620001b3565b919050565b600067ffffffffffffffff82111562000226576200022562000184565b5b620002318262000173565b9050602081019050919050565b60005b838110156200025e57808201518184015260208101905062000241565b60008484015250505050565b6000620002816200027b8462000208565b620001e9565b905082815260208101848484011115620002a0576200029f6200016e565b5b620002ad8482856200023e565b509392505050565b600082601f830112620002cd57620002cc62000169565b5b8151620002df8482602086016200026a565b91505092915050565b600080604083850312156200030257620003016200015f565b5b600083015167ffffffffffffffff81111562000323576200032262000164565b5b6200033185828601620002b5565b925050602083015167ffffffffffffffff81111562000355576200035462000164565b5b6200036385828601620002b5565b9150509250929050565b600081519050919050565b7f4e487b7100000000000000000000000000000000000000000000000000000000600052602260045260246000fd5b60006002820490506001821680620003c057607f821691505b602082108103620003d657620003d562000378565b5b50919050565b60008190508160005260206000209050919050565b60006020601f8301049050919050565b600082821b905092915050565b600060088302620004407fffffffffffffffffffffffffffffffffffffffffffffffffffffffffffffffff8262000401565b6200044c868362000401565b95508019841693508086168417925050509392505050565b6000819050919050565b6000819050919050565b600062000499620004936200048d8462000464565b6200046e565b62000464565b9050919050565b6000819050919050565b620004b58362000478565b620004cd620004c482620004a0565b8484546200040e565b825550505050565b600090565b620004e4620004d5565b620004f1818484620004aa565b505050565b5b8181101562000519576200050d600082620004da565b600181019050620004f7565b5050565b601f82111562000568576200053281620003dc565b6200053d84620003f1565b810160208510156200054d578190505b620005656200055c85620003f1565b830182620004f6565b50505b505050565b600082821c905092915050565b60006200058d600019846008026200056d565b1980831691505092915050565b6000620005a883836200057a565b9150826002028217905092915050565b620005c3826200036d565b67ffffffffffffffff811115620005df57620005de62000184565b5b620005eb8254620003a7565b620005f88282856200051d565b600060209050601f8311600181146200063057600084156200061b578287015190505b6200062785826200059a565b86555062000697565b601f1984166200064086620003dc565b60005b828110156200066a5784890151825560018201915060208501945060208101905062000643565b868310156200068a578489015162000686601f8916826200057a565b8355505b6001600288020188555050505b505050505050565b613a1e80620006af6000396000f3fe608060405234801561001057600080fd5b50600436106101425760003560e01c80636352211e116100b857806395d89b411161007c57806395d89b4114610375578063a22cb46514610393578063b88d4fde146103af578063c87b56dd146103cb578063e985e9c5146103fb578063f2fde38b1461042b57610142565b80636352211e146102cf57806370a08231146102ff57806370d4eeca1461032f578063715018a61461034d5780638da5cb5b1461035757610142565b806318160ddd1161010a57806318160ddd146101fd57806323b872dd1461021b5780632f745c591461023757806340d097c31461026757806342842e0e146102835780634f6ccce71461029f57610142565b806301ab328f1461014757806301ffc9a71461016357806306fdde0314610193578063081812fc146101b1578063095ea7b3146101e1575b600080fd5b610161600480360381019061015c9190612665565b610447565b005b61017d60048036038101906101789190612706565b610462565b60405161018a919061274e565b60405180910390f35b61019b610474565b6040516101a891906127e8565b60405180910390f35b6101cb60048036038101906101c69190612840565b610506565b6040516101d891906128ae565b60405180910390f35b6101fb60048036038101906101f691906128f5565b61054c565b005b610205610663565b6040516102129190612944565b60405180910390f35b6102356004803603810190610230919061295f565b610670565b005b610251600480360381019061024c91906128f5565b6106d0565b60405161025e9190612944565b60405180910390f35b610281600480360381019061027c91906129b2565b610775565b005b61029d6004803603810190610298919061295f565b61082f565b005b6102b960048036038101906102b49190612840565b61084f565b6040516102c69190612944565b60405180910390f35b6102e960048036038101906102e49190612840565b6108c0565b6040516102f691906128ae565b60405180910390f35b610319600480360381019061031491906129b2565b610946565b6040516103269190612944565b60405180910390f35b6103376109fd565b60405161034491906127e8565b60405180910390f35b610355610a8b565b005b61035f610a9f565b60405161036c91906128ae565b60405180910390f35b61037d610ac9565b60405161038a91906127e8565b60405180910390f35b6103ad60048036038101906103a89190612a0b565b610b5b565b005b6103c960048036038101906103c49190612aec565b610b71565b005b6103e560048036038101906103e09190612840565b610bd3565b6040516103f291906127e8565b60405180910390f35b61041560048036038101906104109190612b6f565b610be5565b604051610422919061274e565b60405180910390f35b610445600480360381019061044091906129b2565b610c79565b005b61044f610cfc565b80600d908161045e9190612dbb565b5050565b600061046d82610d7a565b9050919050565b60606000805461048390612bde565b80601f01602080910402602001604051908101604052809291908181526020018280546104af90612bde565b80156104fc5780601f106104d1576101008083540402835291602001916104fc565b820191906000526020600020905b8154815290600101906020018083116104df57829003601f168201915b5050505050905090565b600061051182610df4565b6004600083815260200190815260200160002060009054906101000a900473ffffffffffffffffffffffffffffffffffffffff169050919050565b6000610557826108c0565b90508073ffffffffffffffffffffffffffffffffffffffff168373ffffffffffffffffffffffffffffffffffffffff16036105c7576040517f08c379a00000000000000000000000000000000000000000000000000000000081526004016105be90612eff565b60405180910390fd5b8073ffffffffffffffffffffffffffffffffffffffff166105e6610e3f565b73ffffffffffffffffffffffffffffffffffffffff16148061061557506106148161060f610e3f565b610be5565b5b610654576040517f08c379a000000000000000000000000000000000000000000000000000000000815260040161064b90612f91565b60405180910390fd5b61065e8383610e47565b505050565b6000600880549050905090565b61068161067b610e3f565b82610f00565b6106c0576040517f08c379a00000000000000000000000000000000000000000000000000000000081526004016106b790613023565b60405180910390fd5b6106cb838383610f95565b505050565b60006106db83610946565b821061071c576040517f08c379a0000000000000000000000000000000000000000000000000000000008152600401610713906130b5565b60405180910390fd5b600660008473ffffffffffffffffffffffffffffffffffffffff1673ffffffffffffffffffffffffffffffffffffffff168152602001908152602001600020600083815260200190815260200160002054905092915050565b6000610781600c61128e565b905061078d600c61129c565b61079782826112b2565b61082b81600d80546107a890612bde565b80601f01602080910402602001604051908101604052809291908181526020018280546107d490612bde565b80156108215780601f106107f657610100808354040283529160200191610821565b820191906000526020600020905b81548152906001019060200180831161080457829003601f168201915b50505050506112d0565b5050565b61084a83838360405180602001604052806000815250610b71565b505050565b6000610859610663565b821061089a576040517f08c379a000000000000000000000000000000000000000000000000000000000815260040161089190613147565b60405180910390fd5b600882815481106108ae576108ad613167565b5b90600052602060002001549050919050565b6000806108cc8361133d565b9050600073ffffffffffffffffffffffffffffffffffffffff168173ffffffffffffffffffffffffffffffffffffffff160361093d576040517f08c379a0000000000000000000000000000000000000000000000000000000008152600401610934906131e2565b60405180910390fd5b80915050919050565b60008073ffffffffffffffffffffffffffffffffffffffff168273ffffffffffffffffffffffffffffffffffffffff16036109b6576040517f08c379a00000000000000000000000000000000000000000000000000000000081526004016109ad90613274565b60405180910390fd5b600360008373ffffffffffffffffffffffffffffffffffffffff1673ffffffffffffffffffffffffffffffffffffffff168152602001908152602001600020549050919050565b600d8054610a0a90612bde565b80601f0160208091040260200160405190810160405280929190818152602001828054610a3690612bde565b8015610a835780601f10610a5857610100808354040283529160200191610a83565b820191906000526020600020905b815481529060010190602001808311610a6657829003601f168201915b505050505081565b610a93610cfc565b610a9d600061137a565b565b6000600b60009054906101000a900473ffffffffffffffffffffffffffffffffffffffff16905090565b606060018054610ad890612bde565b80601f0160208091040260200160405190810160405280929190818152602001828054610b0490612bde565b8015610b515780601f10610b2657610100808354040283529160200191610b51565b820191906000526020600020905b815481529060010190602001808311610b3457829003601f168201915b5050505050905090565b610b6d610b66610e3f565b8383611440565b5050565b610b82610b7c610e3f565b83610f00565b610bc1576040517f08c379a0000000000000000000000000000000000000000000000000000000008152600401610bb890613023565b60405180910390fd5b610bcd848484846115ac565b50505050565b6060610bde82611608565b9050919050565b6000600560008473ffffffffffffffffffffffffffffffffffffffff1673ffffffffffffffffffffffffffffffffffffffff16815260200190815260200160002060008373ffffffffffffffffffffffffffffffffffffffff1673ffffffffffffffffffffffffffffffffffffffff16815260200190815260200160002060009054906101000a900460ff16905092915050565b610c81610cfc565b600073ffffffffffffffffffffffffffffffffffffffff168173ffffffffffffffffffffffffffffffffffffffff1603610cf0576040517f08c379a0000000000000000000000000000000000000000000000000000000008152600401610ce790613306565b60405180910390fd5b610cf98161137a565b50565b610d04610e3f565b73ffffffffffffffffffffffffffffffffffffffff16610d22610a9f565b73ffffffffffffffffffffffffffffffffffffffff1614610d78576040517f08c379a0000000000000000000000000000000000000000000000000000000008152600401610d6f90613372565b60405180910390fd5b565b60007f780e9d63000000000000000000000000000000000000000000000000000000007bffffffffffffffffffffffffffffffffffffffffffffffffffffffff1916827bffffffffffffffffffffffffffffffffffffffffffffffffffffffff19161480610ded5750610dec8261171a565b5b9050919050565b610dfd816117fc565b610e3c576040517f08c379a0000000000000000000000000000000000000000000000000000000008152600401610e33906131e2565b60405180910390fd5b50565b600033905090565b816004600083815260200190815260200160002060006101000a81548173ffffffffffffffffffffffffffffffffffffffff021916908373ffffffffffffffffffffffffffffffffffffffff160217905550808273ffffffffffffffffffffffffffffffffffffffff16610eba836108c0565b73ffffffffffffffffffffffffffffffffffffffff167f8c5be1e5ebec7d5bd14f71427d1e84f3dd0314c0f7b2291e5b200ac8c7c3b92560405160405180910390a45050565b600080610f0c836108c0565b90508073ffffffffffffffffffffffffffffffffffffffff168473ffffffffffffffffffffffffffffffffffffffff161480610f4e5750610f4d8185610be5565b5b80610f8c57508373ffffffffffffffffffffffffffffffffffffffff16610f7484610506565b73ffffffffffffffffffffffffffffffffffffffff16145b91505092915050565b8273ffffffffffffffffffffffffffffffffffffffff16610fb5826108c0565b73ffffffffffffffffffffffffffffffffffffffff161461100b576040517f08c379a000000000000000000000000000000000000000000000000000000000815260040161100290613404565b60405180910390fd5b600073ffffffffffffffffffffffffffffffffffffffff168273ffffffffffffffffffffffffffffffffffffffff160361107a576040517f08c379a000000000000000000000000000000000000000000000000000000000815260040161107190613496565b60405180910390fd5b611087838383600161183d565b8273ffffffffffffffffffffffffffffffffffffffff166110a7826108c0565b73ffffffffffffffffffffffffffffffffffffffff16146110fd576040517f08c379a00000000000000000000000000000000000000000000000000000000081526004016110f490613404565b60405180910390fd5b6004600082815260200190815260200160002060006101000a81549073ffffffffffffffffffffffffffffffffffffffff02191690556001600360008573ffffffffffffffffffffffffffffffffffffffff1673ffffffffffffffffffffffffffffffffffffffff168152602001908152602001600020600082825403925050819055506001600360008473ffffffffffffffffffffffffffffffffffffffff1673ffffffffffffffffffffffffffffffffffffffff16815260200190815260200160002060008282540192505081905550816002600083815260200190815260200160002060006101000a81548173ffffffffffffffffffffffffffffffffffffffff021916908373ffffffffffffffffffffffffffffffffffffffff160217905550808273ffffffffffffffffffffffffffffffffffffffff168473ffffffffffffffffffffffffffffffffffffffff167fddf252ad1be2c89b69c2b068fc378daa952ba7f163c4a11628f55a4df523b3ef60405160405180910390a4611289838383600161184f565b505050565b600081600001549050919050565b6001816000016000828254019250508190555050565b6112cc828260405180602001604052806000815250611855565b5050565b6112d9826117fc565b611318576040517f08c379a000000000000000000000000000000000000000000000000000000000815260040161130f90613528565b60405180910390fd5b80600a600084815260200190815260200160002090816113389190612dbb565b505050565b60006002600083815260200190815260200160002060009054906101000a900473ffffffffffffffffffffffffffffffffffffffff169050919050565b6000600b60009054906101000a900473ffffffffffffffffffffffffffffffffffffffff16905081600b60006101000a81548173ffffffffffffffffffffffffffffffffffffffff021916908373ffffffffffffffffffffffffffffffffffffffff1602179055508173ffffffffffffffffffffffffffffffffffffffff168173ffffffffffffffffffffffffffffffffffffffff167f8be0079c531659141344cd1fd0a4f28419497f9722a3daafe3b4186f6b6457e060405160405180910390a35050565b8173ffffffffffffffffffffffffffffffffffffffff168373ffffffffffffffffffffffffffffffffffffffff16036114ae576040517f08c379a00000000000000000000000000000000000000000000000000000000081526004016114a590613594565b60405180910390fd5b80600560008573ffffffffffffffffffffffffffffffffffffffff1673ffffffffffffffffffffffffffffffffffffffff16815260200190815260200160002060008473ffffffffffffffffffffffffffffffffffffffff1673ffffffffffffffffffffffffffffffffffffffff16815260200190815260200160002060006101000a81548160ff0219169083151502179055508173ffffffffffffffffffffffffffffffffffffffff168373ffffffffffffffffffffffffffffffffffffffff167f17307eab39ab6107e8899845ad3d59bd9653f200f220920489ca2b5937696c318360405161159f919061274e565b60405180910390a3505050565b6115b7848484610f95565b6115c3848484846118b0565b611602576040517f08c379a00000000000000000000000000000000000000000000000000000000081526004016115f990613626565b60405180910390fd5b50505050565b606061161382610df4565b6000600a6000848152602001908152602001600020805461163390612bde565b80601f016020809104026020016040519081016040528092919081815260200182805461165f90612bde565b80156116ac5780601f10611681576101008083540402835291602001916116ac565b820191906000526020600020905b81548152906001019060200180831161168f57829003601f168201915b5050505050905060006116bd611a37565b905060008151036116d2578192505050611715565b6000825111156117075780826040516020016116ef929190613682565b60405160208183030381529060405292505050611715565b61171084611a4e565b925050505b919050565b60007f80ac58cd000000000000000000000000000000000000000000000000000000007bffffffffffffffffffffffffffffffffffffffffffffffffffffffff1916827bffffffffffffffffffffffffffffffffffffffffffffffffffffffff191614806117e557507f5b5e139f000000000000000000000000000000000000000000000000000000007bffffffffffffffffffffffffffffffffffffffffffffffffffffffff1916827bffffffffffffffffffffffffffffffffffffffffffffffffffffffff1916145b806117f557506117f482611ab6565b5b9050919050565b60008073ffffffffffffffffffffffffffffffffffffffff1661181e8361133d565b73ffffffffffffffffffffffffffffffffffffffff1614159050919050565b61184984848484611b20565b50505050565b50505050565b61185f8383611c7e565b61186c60008484846118b0565b6118ab576040517f08c379a00000000000000000000000000000000000000000000000000000000081526004016118a290613626565b60405180910390fd5b505050565b60006118d18473ffffffffffffffffffffffffffffffffffffffff16611e9b565b15611a2a578373ffffffffffffffffffffffffffffffffffffffff1663150b7a026118fa610e3f565b8786866040518563ffffffff1660e01b815260040161191c94939291906136fb565b6020604051808303816000875af192505050801561195857506040513d601f19601f82011682018060405250810190611955919061375c565b60015b6119da573d8060008114611988576040519150601f19603f3d011682016040523d82523d6000602084013e61198d565b606091505b5060008151036119d2576040517f08c379a00000000000000000000000000000000000000000000000000000000081526004016119c990613626565b60405180910390fd5b805181602001fd5b63150b7a0260e01b7bffffffffffffffffffffffffffffffffffffffffffffffffffffffff1916817bffffffffffffffffffffffffffffffffffffffffffffffffffffffff191614915050611a2f565b600190505b949350505050565b606060405180602001604052806000815250905090565b6060611a5982610df4565b6000611a63611a37565b90506000815111611a835760405180602001604052806000815250611aae565b80611a8d84611ebe565b604051602001611a9e929190613682565b6040516020818303038152906040525b915050919050565b60007f01ffc9a7000000000000000000000000000000000000000000000000000000007bffffffffffffffffffffffffffffffffffffffffffffffffffffffff1916827bffffffffffffffffffffffffffffffffffffffffffffffffffffffff1916149050919050565b611b2c84848484611f8c565b6001811115611b70576040517f08c379a0000000000000000000000000000000000000000000000000000000008152600401611b67906137fb565b60405180910390fd5b6000829050600073ffffffffffffffffffffffffffffffffffffffff168573ffffffffffffffffffffffffffffffffffffffff1603611bb757611bb2816120b2565b611bf6565b8373ffffffffffffffffffffffffffffffffffffffff168573ffffffffffffffffffffffffffffffffffffffff1614611bf557611bf485826120fb565b5b5b600073ffffffffffffffffffffffffffffffffffffffff168473ffffffffffffffffffffffffffffffffffffffff1603611c3857611c3381612268565b611c77565b8473ffffffffffffffffffffffffffffffffffffffff168473ffffffffffffffffffffffffffffffffffffffff1614611c7657611c758482612339565b5b5b5050505050565b600073ffffffffffffffffffffffffffffffffffffffff168273ffffffffffffffffffffffffffffffffffffffff1603611ced576040517f08c379a0000000000000000000000000000000000000000000000000000000008152600401611ce490613867565b60405180910390fd5b611cf6816117fc565b15611d36576040517f08c379a0000000000000000000000000000000000000000000000000000000008152600401611d2d906138d3565b60405180910390fd5b611d4460008383600161183d565b611d4d816117fc565b15611d8d576040517f08c379a0000000000000000000000000000000000000000000000000000000008152600401611d84906138d3565b60405180910390fd5b6001600360008473ffffffffffffffffffffffffffffffffffffffff1673ffffffffffffffffffffffffffffffffffffffff16815260200190815260200160002060008282540192505081905550816002600083815260200190815260200160002060006101000a81548173ffffffffffffffffffffffffffffffffffffffff021916908373ffffffffffffffffffffffffffffffffffffffff160217905550808273ffffffffffffffffffffffffffffffffffffffff16600073ffffffffffffffffffffffffffffffffffffffff167fddf252ad1be2c89b69c2b068fc378daa952ba7f163c4a11628f55a4df523b3ef60405160405180910390a4611e9760008383600161184f565b5050565b6000808273ffffffffffffffffffffffffffffffffffffffff163b119050919050565b606060006001611ecd846123b8565b01905060008167ffffffffffffffff811115611eec57611eeb61253a565b5b6040519080825280601f01601f191660200182016040528015611f1e5781602001600182028036833780820191505090505b509050600082602001820190505b600115611f81578080600190039150507f3031323334353637383961626364656600000000000000000000000000000000600a86061a8153600a8581611f7557611f746138f3565b5b04945060008503611f2c575b819350505050919050565b60018111156120ac57600073ffffffffffffffffffffffffffffffffffffffff168473ffffffffffffffffffffffffffffffffffffffff16146120205780600360008673ffffffffffffffffffffffffffffffffffffffff1673ffffffffffffffffffffffffffffffffffffffff16815260200190815260200160002060008282546120189190613951565b925050819055505b600073ffffffffffffffffffffffffffffffffffffffff168373ffffffffffffffffffffffffffffffffffffffff16146120ab5780600360008573ffffffffffffffffffffffffffffffffffffffff1673ffffffffffffffffffffffffffffffffffffffff16815260200190815260200160002060008282546120a39190613985565b925050819055505b5b50505050565b6008805490506009600083815260200190815260200160002081905550600881908060018154018082558091505060019003906000526020600020016000909190919091505550565b6000600161210884610946565b6121129190613951565b90506000600760008481526020019081526020016000205490508181146121f7576000600660008673ffffffffffffffffffffffffffffffffffffffff1673ffffffffffffffffffffffffffffffffffffffff168152602001908152602001600020600084815260200190815260200160002054905080600660008773ffffffffffffffffffffffffffffffffffffffff1673ffffffffffffffffffffffffffffffffffffffff168152602001908152602001600020600084815260200190815260200160002081905550816007600083815260200190815260200160002081905550505b6007600084815260200190815260200160002060009055600660008573ffffffffffffffffffffffffffffffffffffffff1673ffffffffffffffffffffffffffffffffffffffff16815260200190815260200160002060008381526020019081526020016000206000905550505050565b6000600160088054905061227c9190613951565b90506000600960008481526020019081526020016000205490506000600883815481106122ac576122ab613167565b5b9060005260206000200154905080600883815481106122ce576122cd613167565b5b90600052602060002001819055508160096000838152602001908152602001600020819055506009600085815260200190815260200160002060009055600880548061231d5761231c6139b9565b5b6001900381819060005260206000200160009055905550505050565b600061234483610946565b905081600660008573ffffffffffffffffffffffffffffffffffffffff1673ffffffffffffffffffffffffffffffffffffffff168152602001908152602001600020600083815260200190815260200160002081905550806007600084815260200190815260200160002081905550505050565b600080600090507a184f03e93ff9f4daa797ed6e38ed64bf6a1f0100000000000000008310612416577a184f03e93ff9f4daa797ed6e38ed64bf6a1f010000000000000000838161240c5761240b6138f3565b5b0492506040810190505b6d04ee2d6d415b85acef81000000008310612453576d04ee2d6d415b85acef81000000008381612449576124486138f3565b5b0492506020810190505b662386f26fc10000831061248257662386f26fc100008381612478576124776138f3565b5b0492506010810190505b6305f5e10083106124ab576305f5e10083816124a1576124a06138f3565b5b0492506008810190505b61271083106124d05761271083816124c6576124c56138f3565b5b0492506004810190505b606483106124f357606483816124e9576124e86138f3565b5b0492506002810190505b600a8310612502576001810190505b80915050919050565b6000604051905090565b600080fd5b600080fd5b600080fd5b600080fd5b6000601f19601f8301169050919050565b7f4e487b7100000000000000000000000000000000000000000000000000000000600052604160045260246000fd5b61257282612529565b810181811067ffffffffffffffff821117156125915761259061253a565b5b80604052505050565b60006125a461250b565b90506125b08282612569565b919050565b600067ffffffffffffffff8211156125d0576125cf61253a565b5b6125d982612529565b9050602081019050919050565b82818337600083830152505050565b6000612608612603846125b5565b61259a565b90508281526020810184848401111561262457612623612524565b5b61262f8482856125e6565b509392505050565b600082601f83011261264c5761264b61251f565b5b813561265c8482602086016125f5565b91505092915050565b60006020828403121561267b5761267a612515565b5b600082013567ffffffffffffffff8111156126995761269861251a565b5b6126a584828501612637565b91505092915050565b60007fffffffff0000000000000000000000000000000000000000000000000000000082169050919050565b6126e3816126ae565b81146126ee57600080fd5b50565b600081359050612700816126da565b92915050565b60006020828403121561271c5761271b612515565b5b600061272a848285016126f1565b91505092915050565b60008115159050919050565b61274881612733565b82525050565b6000602082019050612763600083018461273f565b92915050565b600081519050919050565b600082825260208201905092915050565b60005b838110156127a3578082015181840152602081019050612788565b60008484015250505050565b60006127ba82612769565b6127c48185612774565b93506127d4818560208601612785565b6127dd81612529565b840191505092915050565b6000602082019050818103600083015261280281846127af565b905092915050565b6000819050919050565b61281d8161280a565b811461282857600080fd5b50565b60008135905061283a81612814565b92915050565b60006020828403121561285657612855612515565b5b60006128648482850161282b565b91505092915050565b600073ffffffffffffffffffffffffffffffffffffffff82169050919050565b60006128988261286d565b9050919050565b6128a88161288d565b82525050565b60006020820190506128c3600083018461289f565b92915050565b6128d28161288d565b81146128dd57600080fd5b50565b6000813590506128ef816128c9565b92915050565b6000806040838503121561290c5761290b612515565b5b600061291a858286016128e0565b925050602061292b8582860161282b565b9150509250929050565b61293e8161280a565b82525050565b60006020820190506129596000830184612935565b92915050565b60008060006060848603121561297857612977612515565b5b6000612986868287016128e0565b9350506020612997868287016128e0565b92505060406129a88682870161282b565b9150509250925092565b6000602082840312156129c8576129c7612515565b5b60006129d6848285016128e0565b91505092915050565b6129e881612733565b81146129f357600080fd5b50565b600081359050612a05816129df565b92915050565b60008060408385031215612a2257612a21612515565b5b6000612a30858286016128e0565b9250506020612a41858286016129f6565b9150509250929050565b600067ffffffffffffffff821115612a6657612a6561253a565b5b612a6f82612529565b9050602081019050919050565b6000612a8f612a8a84612a4b565b61259a565b905082815260208101848484011115612aab57612aaa612524565b5b612ab68482856125e6565b509392505050565b600082601f830112612ad357612ad261251f565b5b8135612ae3848260208601612a7c565b91505092915050565b60008060008060808587031215612b0657612b05612515565b5b6000612b14878288016128e0565b9450506020612b25878288016128e0565b9350506040612b368782880161282b565b925050606085013567ffffffffffffffff811115612b5757612b5661251a565b5b612b6387828801612abe565b91505092959194509250565b60008060408385031215612b8657612b85612515565b5b6000612b94858286016128e0565b9250506020612ba5858286016128e0565b9150509250929050565b7f4e487b7100000000000000000000000000000000000000000000000000000000600052602260045260246000fd5b60006002820490506001821680612bf657607f821691505b602082108103612c0957612c08612baf565b5b50919050565b60008190508160005260206000209050919050565b60006020601f8301049050919050565b600082821b905092915050565b600060088302612c717fffffffffffffffffffffffffffffffffffffffffffffffffffffffffffffffff82612c34565b612c7b8683612c34565b95508019841693508086168417925050509392505050565b6000819050919050565b6000612cb8612cb3612cae8461280a565b612c93565b61280a565b9050919050565b6000819050919050565b612cd283612c9d565b612ce6612cde82612cbf565b848454612c41565b825550505050565b600090565b612cfb612cee565b612d06818484612cc9565b505050565b5b81811015612d2a57612d1f600082612cf3565b600181019050612d0c565b5050565b601f821115612d6f57612d4081612c0f565b612d4984612c24565b81016020851015612d58578190505b612d6c612d6485612c24565b830182612d0b565b50505b505050565b600082821c905092915050565b6000612d9260001984600802612d74565b1980831691505092915050565b6000612dab8383612d81565b9150826002028217905092915050565b612dc482612769565b67ffffffffffffffff811115612ddd57612ddc61253a565b5b612de78254612bde565b612df2828285612d2e565b600060209050601f831160018114612e255760008415612e13578287015190505b612e1d8582612d9f565b865550612e85565b601f198416612e3386612c0f565b60005b82811015612e5b57848901518255600182019150602085019450602081019050612e36565b86831015612e785784890151612e74601f891682612d81565b8355505b6001600288020188555050505b505050505050565b7f4552433732313a20617070726f76616c20746f2063757272656e74206f776e6560008201527f7200000000000000000000000000000000000000000000000000000000000000602082015250565b6000612ee9602183612774565b9150612ef482612e8d565b604082019050919050565b60006020820190508181036000830152612f1881612edc565b9050919050565b7f4552433732313a20617070726f76652063616c6c6572206973206e6f7420746f60008201527f6b656e206f776e6572206f7220617070726f76656420666f7220616c6c000000602082015250565b6000612f7b603d83612774565b9150612f8682612f1f565b604082019050919050565b60006020820190508181036000830152612faa81612f6e565b9050919050565b7f4552433732313a2063616c6c6572206973206e6f7420746f6b656e206f776e6560008201527f72206f7220617070726f76656400000000000000000000000000000000000000602082015250565b600061300d602d83612774565b915061301882612fb1565b604082019050919050565b6000602082019050818103600083015261303c81613000565b9050919050565b7f455243373231456e756d657261626c653a206f776e657220696e646578206f7560008201527f74206f6620626f756e6473000000000000000000000000000000000000000000602082015250565b600061309f602b83612774565b91506130aa82613043565b604082019050919050565b600060208201905081810360008301526130ce81613092565b9050919050565b7f455243373231456e756d657261626c653a20676c6f62616c20696e646578206f60008201527f7574206f6620626f756e64730000000000000000000000000000000000000000602082015250565b6000613131602c83612774565b915061313c826130d5565b604082019050919050565b6000602082019050818103600083015261316081613124565b9050919050565b7f4e487b7100000000000000000000000000000000000000000000000000000000600052603260045260246000fd5b7f4552433732313a20696e76616c696420746f6b656e2049440000000000000000600082015250565b60006131cc601883612774565b91506131d782613196565b602082019050919050565b600060208201905081810360008301526131fb816131bf565b9050919050565b7f4552433732313a2061646472657373207a65726f206973206e6f74206120766160008201527f6c6964206f776e65720000000000000000000000000000000000000000000000602082015250565b600061325e602983612774565b915061326982613202565b604082019050919050565b6000602082019050818103600083015261328d81613251565b9050919050565b7f4f776e61626c653a206e6577206f776e657220697320746865207a65726f206160008201527f6464726573730000000000000000000000000000000000000000000000000000602082015250565b60006132f0602683612774565b91506132fb82613294565b604082019050919050565b6000602082019050818103600083015261331f816132e3565b9050919050565b7f4f776e61626c653a2063616c6c6572206973206e6f7420746865206f776e6572600082015250565b600061335c602083612774565b915061336782613326565b602082019050919050565b6000602082019050818103600083015261338b8161334f565b9050919050565b7f4552433732313a207472616e736665722066726f6d20696e636f72726563742060008201527f6f776e6572000000000000000000000000000000000000000000000000000000602082015250565b60006133ee602583612774565b91506133f982613392565b604082019050919050565b6000602082019050818103600083015261341d816133e1565b9050919050565b7f4552433732313a207472616e7366657220746f20746865207a65726f2061646460008201527f7265737300000000000000000000000000000000000000000000000000000000602082015250565b6000613480602483612774565b915061348b82613424565b604082019050919050565b600060208201905081810360008301526134af81613473565b9050919050565b7f45524337323155524953746f726167653a2055524920736574206f66206e6f6e60008201527f6578697374656e7420746f6b656e000000000000000000000000000000000000602082015250565b6000613512602e83612774565b915061351d826134b6565b604082019050919050565b6000602082019050818103600083015261354181613505565b9050919050565b7f4552433732313a20617070726f766520746f2063616c6c657200000000000000600082015250565b600061357e601983612774565b915061358982613548565b602082019050919050565b600060208201905081810360008301526135ad81613571565b9050919050565b7f4552433732313a207472616e7366657220746f206e6f6e20455243373231526560008201527f63656976657220696d706c656d656e7465720000000000000000000000000000602082015250565b6000613610603283612774565b915061361b826135b4565b604082019050919050565b6000602082019050818103600083015261363f81613603565b9050919050565b600081905092915050565b600061365c82612769565b6136668185613646565b9350613676818560208601612785565b80840191505092915050565b600061368e8285613651565b915061369a8284613651565b91508190509392505050565b600081519050919050565b600082825260208201905092915050565b60006136cd826136a6565b6136d781856136b1565b93506136e7818560208601612785565b6136f081612529565b840191505092915050565b6000608082019050613710600083018761289f565b61371d602083018661289f565b61372a6040830185612935565b818103606083015261373c81846136c2565b905095945050505050565b600081519050613756816126da565b92915050565b60006020828403121561377257613771612515565b5b600061378084828501613747565b91505092915050565b7f455243373231456e756d657261626c653a20636f6e736563757469766520747260008201527f616e7366657273206e6f7420737570706f727465640000000000000000000000602082015250565b60006137e5603583612774565b91506137f082613789565b604082019050919050565b60006020820190508181036000830152613814816137d8565b9050919050565b7f4552433732313a206d696e7420746f20746865207a65726f2061646472657373600082015250565b6000613851602083612774565b915061385c8261381b565b602082019050919050565b6000602082019050818103600083015261388081613844565b9050919050565b7f4552433732313a20746f6b656e20616c7265616479206d696e74656400000000600082015250565b60006138bd601c83612774565b91506138c882613887565b602082019050919050565b600060208201905081810360008301526138ec816138b0565b9050919050565b7f4e487b7100000000000000000000000000000000000000000000000000000000600052601260045260246000fd5b7f4e487b7100000000000000000000000000000000000000000000000000000000600052601160045260246000fd5b600061395c8261280a565b91506139678361280a565b925082820390508181111561397f5761397e613922565b5b92915050565b60006139908261280a565b915061399b8361280a565b92508282019050808211156139b3576139b2613922565b5b92915050565b7f4e487b7100000000000000000000000000000000000000000000000000000000600052603160045260246000fdfea264697066735822122050cdb02276aafae25e9dc16ed7adcd3f7a283dd94975bafe566358e92c33995764736f6c63430008110033",
  "linkReferences": {},
  "deployedLinkReferences": {}
}